{
  "_format": "hh-sol-artifact-1",
  "contractName": "EnergyNFTMarketplace",
  "sourceName": "contracts/EnergyNFTMarketplace.sol",
  "abi": [
    {
      "inputs": [],
      "stateMutability": "nonpayable",
      "type": "constructor"
    },
    {
      "inputs": [
        {
          "internalType": "address",
          "name": "sender",
          "type": "address"
        },
        {
          "internalType": "uint256",
          "name": "tokenId",
          "type": "uint256"
        },
        {
          "internalType": "address",
          "name": "owner",
          "type": "address"
        }
      ],
      "name": "ERC721IncorrectOwner",
      "type": "error"
    },
    {
      "inputs": [
        {
          "internalType": "address",
          "name": "operator",
          "type": "address"
        },
        {
          "internalType": "uint256",
          "name": "tokenId",
          "type": "uint256"
        }
      ],
      "name": "ERC721InsufficientApproval",
      "type": "error"
    },
    {
      "inputs": [
        {
          "internalType": "address",
          "name": "approver",
          "type": "address"
        }
      ],
      "name": "ERC721InvalidApprover",
      "type": "error"
    },
    {
      "inputs": [
        {
          "internalType": "address",
          "name": "operator",
          "type": "address"
        }
      ],
      "name": "ERC721InvalidOperator",
      "type": "error"
    },
    {
      "inputs": [
        {
          "internalType": "address",
          "name": "owner",
          "type": "address"
        }
      ],
      "name": "ERC721InvalidOwner",
      "type": "error"
    },
    {
      "inputs": [
        {
          "internalType": "address",
          "name": "receiver",
          "type": "address"
        }
      ],
      "name": "ERC721InvalidReceiver",
      "type": "error"
    },
    {
      "inputs": [
        {
          "internalType": "address",
          "name": "sender",
          "type": "address"
        }
      ],
      "name": "ERC721InvalidSender",
      "type": "error"
    },
    {
      "inputs": [
        {
          "internalType": "uint256",
          "name": "tokenId",
          "type": "uint256"
        }
      ],
      "name": "ERC721NonexistentToken",
      "type": "error"
    },
    {
      "inputs": [
        {
          "internalType": "address",
          "name": "owner",
          "type": "address"
        }
      ],
      "name": "OwnableInvalidOwner",
      "type": "error"
    },
    {
      "inputs": [
        {
          "internalType": "address",
          "name": "account",
          "type": "address"
        }
      ],
      "name": "OwnableUnauthorizedAccount",
      "type": "error"
    },
    {
      "anonymous": false,
      "inputs": [
        {
          "indexed": true,
          "internalType": "address",
          "name": "owner",
          "type": "address"
        },
        {
          "indexed": true,
          "internalType": "address",
          "name": "approved",
          "type": "address"
        },
        {
          "indexed": true,
          "internalType": "uint256",
          "name": "tokenId",
          "type": "uint256"
        }
      ],
      "name": "Approval",
      "type": "event"
    },
    {
      "anonymous": false,
      "inputs": [
        {
          "indexed": true,
          "internalType": "address",
          "name": "owner",
          "type": "address"
        },
        {
          "indexed": true,
          "internalType": "address",
          "name": "operator",
          "type": "address"
        },
        {
          "indexed": false,
          "internalType": "bool",
          "name": "approved",
          "type": "bool"
        }
      ],
      "name": "ApprovalForAll",
      "type": "event"
    },
    {
      "anonymous": false,
      "inputs": [
        {
          "indexed": false,
          "internalType": "uint256",
          "name": "_fromTokenId",
          "type": "uint256"
        },
        {
          "indexed": false,
          "internalType": "uint256",
          "name": "_toTokenId",
          "type": "uint256"
        }
      ],
      "name": "BatchMetadataUpdate",
      "type": "event"
    },
    {
      "anonymous": false,
      "inputs": [
        {
          "indexed": false,
          "internalType": "uint256",
          "name": "tokenId",
          "type": "uint256"
        }
      ],
      "name": "EnergyNFTBurned",
      "type": "event"
    },
    {
      "anonymous": false,
      "inputs": [
        {
          "indexed": false,
          "internalType": "uint256",
          "name": "tokenId",
          "type": "uint256"
        },
        {
          "indexed": false,
          "internalType": "uint256",
          "name": "price",
          "type": "uint256"
        }
      ],
      "name": "EnergyNFTListed",
      "type": "event"
    },
    {
      "anonymous": false,
      "inputs": [
        {
          "indexed": true,
          "internalType": "address",
          "name": "recipient",
          "type": "address"
        },
        {
          "indexed": false,
          "internalType": "uint256",
          "name": "tokenId",
          "type": "uint256"
        },
        {
          "indexed": false,
          "internalType": "uint256",
          "name": "energyAmount",
          "type": "uint256"
        },
        {
          "indexed": false,
          "internalType": "uint256",
          "name": "price",
          "type": "uint256"
        }
      ],
      "name": "EnergyNFTMinted",
      "type": "event"
    },
    {
      "anonymous": false,
      "inputs": [
        {
          "indexed": true,
          "internalType": "address",
          "name": "buyer",
          "type": "address"
        },
        {
          "indexed": false,
          "internalType": "uint256",
          "name": "tokenId",
          "type": "uint256"
        },
        {
          "indexed": false,
          "internalType": "uint256",
          "name": "price",
          "type": "uint256"
        }
      ],
      "name": "EnergyNFTSold",
      "type": "event"
    },
    {
      "anonymous": false,
      "inputs": [
        {
          "indexed": true,
          "internalType": "address",
          "name": "owner",
          "type": "address"
        },
        {
          "indexed": false,
          "internalType": "uint256",
          "name": "amount",
          "type": "uint256"
        }
      ],
      "name": "FundsWithdrawn",
      "type": "event"
    },
    {
      "anonymous": false,
      "inputs": [
        {
          "indexed": false,
          "internalType": "uint256",
          "name": "_tokenId",
          "type": "uint256"
        }
      ],
      "name": "MetadataUpdate",
      "type": "event"
    },
    {
      "anonymous": false,
      "inputs": [
        {
          "indexed": true,
          "internalType": "address",
          "name": "previousOwner",
          "type": "address"
        },
        {
          "indexed": true,
          "internalType": "address",
          "name": "newOwner",
          "type": "address"
        }
      ],
      "name": "OwnershipTransferred",
      "type": "event"
    },
    {
      "anonymous": false,
      "inputs": [
        {
          "indexed": true,
          "internalType": "address",
          "name": "from",
          "type": "address"
        },
        {
          "indexed": true,
          "internalType": "address",
          "name": "to",
          "type": "address"
        },
        {
          "indexed": true,
          "internalType": "uint256",
          "name": "tokenId",
          "type": "uint256"
        }
      ],
      "name": "Transfer",
      "type": "event"
    },
    {
      "inputs": [
        {
          "internalType": "address",
          "name": "to",
          "type": "address"
        },
        {
          "internalType": "uint256",
          "name": "tokenId",
          "type": "uint256"
        }
      ],
      "name": "approve",
      "outputs": [],
      "stateMutability": "nonpayable",
      "type": "function"
    },
    {
      "inputs": [
        {
          "internalType": "address",
          "name": "owner",
          "type": "address"
        }
      ],
      "name": "balanceOf",
      "outputs": [
        {
          "internalType": "uint256",
          "name": "",
          "type": "uint256"
        }
      ],
      "stateMutability": "view",
      "type": "function"
    },
    {
      "inputs": [
        {
          "internalType": "uint256",
          "name": "tokenId",
          "type": "uint256"
        }
      ],
      "name": "burnEnergyNFT",
      "outputs": [],
      "stateMutability": "nonpayable",
      "type": "function"
    },
    {
      "inputs": [
        {
          "internalType": "uint256",
          "name": "tokenId",
          "type": "uint256"
        }
      ],
      "name": "buyEnergyNFT",
      "outputs": [],
      "stateMutability": "payable",
      "type": "function"
    },
    {
      "inputs": [
        {
          "internalType": "uint256",
          "name": "",
          "type": "uint256"
        }
      ],
      "name": "energyUnits",
      "outputs": [
        {
          "internalType": "uint256",
          "name": "",
          "type": "uint256"
        }
      ],
      "stateMutability": "view",
      "type": "function"
    },
    {
      "inputs": [
        {
          "internalType": "uint256",
          "name": "tokenId",
          "type": "uint256"
        }
      ],
      "name": "getApproved",
      "outputs": [
        {
          "internalType": "address",
          "name": "",
          "type": "address"
        }
      ],
      "stateMutability": "view",
      "type": "function"
    },
    {
      "inputs": [
        {
          "internalType": "address",
          "name": "owner",
          "type": "address"
        },
        {
          "internalType": "address",
          "name": "operator",
          "type": "address"
        }
      ],
      "name": "isApprovedForAll",
      "outputs": [
        {
          "internalType": "bool",
          "name": "",
          "type": "bool"
        }
      ],
      "stateMutability": "view",
      "type": "function"
    },
    {
      "inputs": [
        {
          "internalType": "uint256",
          "name": "tokenId",
          "type": "uint256"
        },
        {
          "internalType": "uint256",
          "name": "price",
          "type": "uint256"
        }
      ],
      "name": "listNFT",
      "outputs": [],
      "stateMutability": "nonpayable",
      "type": "function"
    },
    {
      "inputs": [
        {
          "internalType": "uint256",
          "name": "",
          "type": "uint256"
        }
      ],
      "name": "listedForSale",
      "outputs": [
        {
          "internalType": "bool",
          "name": "",
          "type": "bool"
        }
      ],
      "stateMutability": "view",
      "type": "function"
    },
    {
      "inputs": [
        {
          "internalType": "address",
          "name": "recipient",
          "type": "address"
        },
        {
          "internalType": "string",
          "name": "tokenURI",
          "type": "string"
        },
        {
          "internalType": "uint256",
          "name": "energyAmount",
          "type": "uint256"
        },
        {
          "internalType": "uint256",
          "name": "price",
          "type": "uint256"
        }
      ],
      "name": "mintEnergyNFT",
      "outputs": [
        {
          "internalType": "uint256",
          "name": "",
          "type": "uint256"
        }
      ],
      "stateMutability": "nonpayable",
      "type": "function"
    },
    {
      "inputs": [],
      "name": "name",
      "outputs": [
        {
          "internalType": "string",
          "name": "",
          "type": "string"
        }
      ],
      "stateMutability": "view",
      "type": "function"
    },
    {
      "inputs": [],
      "name": "nextTokenId",
      "outputs": [
        {
          "internalType": "uint256",
          "name": "",
          "type": "uint256"
        }
      ],
      "stateMutability": "view",
      "type": "function"
    },
    {
      "inputs": [],
      "name": "owner",
      "outputs": [
        {
          "internalType": "address",
          "name": "",
          "type": "address"
        }
      ],
      "stateMutability": "view",
      "type": "function"
    },
    {
      "inputs": [
        {
          "internalType": "uint256",
          "name": "tokenId",
          "type": "uint256"
        }
      ],
      "name": "ownerOf",
      "outputs": [
        {
          "internalType": "address",
          "name": "",
          "type": "address"
        }
      ],
      "stateMutability": "view",
      "type": "function"
    },
    {
      "inputs": [
        {
          "internalType": "uint256",
          "name": "",
          "type": "uint256"
        }
      ],
      "name": "prices",
      "outputs": [
        {
          "internalType": "uint256",
          "name": "",
          "type": "uint256"
        }
      ],
      "stateMutability": "view",
      "type": "function"
    },
    {
      "inputs": [],
      "name": "renounceOwnership",
      "outputs": [],
      "stateMutability": "nonpayable",
      "type": "function"
    },
    {
      "inputs": [
        {
          "internalType": "address",
          "name": "from",
          "type": "address"
        },
        {
          "internalType": "address",
          "name": "to",
          "type": "address"
        },
        {
          "internalType": "uint256",
          "name": "tokenId",
          "type": "uint256"
        }
      ],
      "name": "safeTransferFrom",
      "outputs": [],
      "stateMutability": "nonpayable",
      "type": "function"
    },
    {
      "inputs": [
        {
          "internalType": "address",
          "name": "from",
          "type": "address"
        },
        {
          "internalType": "address",
          "name": "to",
          "type": "address"
        },
        {
          "internalType": "uint256",
          "name": "tokenId",
          "type": "uint256"
        },
        {
          "internalType": "bytes",
          "name": "data",
          "type": "bytes"
        }
      ],
      "name": "safeTransferFrom",
      "outputs": [],
      "stateMutability": "nonpayable",
      "type": "function"
    },
    {
      "inputs": [
        {
          "internalType": "address",
          "name": "operator",
          "type": "address"
        },
        {
          "internalType": "bool",
          "name": "approved",
          "type": "bool"
        }
      ],
      "name": "setApprovalForAll",
      "outputs": [],
      "stateMutability": "nonpayable",
      "type": "function"
    },
    {
      "inputs": [
        {
          "internalType": "bytes4",
          "name": "interfaceId",
          "type": "bytes4"
        }
      ],
      "name": "supportsInterface",
      "outputs": [
        {
          "internalType": "bool",
          "name": "",
          "type": "bool"
        }
      ],
      "stateMutability": "view",
      "type": "function"
    },
    {
      "inputs": [],
      "name": "symbol",
      "outputs": [
        {
          "internalType": "string",
          "name": "",
          "type": "string"
        }
      ],
      "stateMutability": "view",
      "type": "function"
    },
    {
      "inputs": [
        {
          "internalType": "uint256",
          "name": "tokenId",
          "type": "uint256"
        }
      ],
      "name": "tokenURI",
      "outputs": [
        {
          "internalType": "string",
          "name": "",
          "type": "string"
        }
      ],
      "stateMutability": "view",
      "type": "function"
    },
    {
      "inputs": [
        {
          "internalType": "address",
          "name": "from",
          "type": "address"
        },
        {
          "internalType": "address",
          "name": "to",
          "type": "address"
        },
        {
          "internalType": "uint256",
          "name": "tokenId",
          "type": "uint256"
        }
      ],
      "name": "transferFrom",
      "outputs": [],
      "stateMutability": "nonpayable",
      "type": "function"
    },
    {
      "inputs": [
        {
          "internalType": "address",
          "name": "newOwner",
          "type": "address"
        }
      ],
      "name": "transferOwnership",
      "outputs": [],
      "stateMutability": "nonpayable",
      "type": "function"
    },
    {
      "inputs": [],
      "name": "withdrawFunds",
      "outputs": [],
      "stateMutability": "nonpayable",
      "type": "function"
    }
  ],
  "bytecode": "0x608060405234801561001057600080fd5b50336040518060400160405280600b81526020017f456e65726779546f6b656e0000000000000000000000000000000000000000008152506040518060400160405280600381526020017f454e540000000000000000000000000000000000000000000000000000000000815250816000908161008d919061043d565b50806001908161009d919061043d565b505050600073ffffffffffffffffffffffffffffffffffffffff168173ffffffffffffffffffffffffffffffffffffffff16036101125760006040517f1e4fbdf70000000000000000000000000000000000000000000000000000000081526004016101099190610550565b60405180910390fd5b6101218161012760201b60201c565b5061056b565b6000600760009054906101000a900473ffffffffffffffffffffffffffffffffffffffff16905081600760006101000a81548173ffffffffffffffffffffffffffffffffffffffff021916908373ffffffffffffffffffffffffffffffffffffffff1602179055508173ffffffffffffffffffffffffffffffffffffffff168173ffffffffffffffffffffffffffffffffffffffff167f8be0079c531659141344cd1fd0a4f28419497f9722a3daafe3b4186f6b6457e060405160405180910390a35050565b600081519050919050565b7f4e487b7100000000000000000000000000000000000000000000000000000000600052604160045260246000fd5b7f4e487b7100000000000000000000000000000000000000000000000000000000600052602260045260246000fd5b6000600282049050600182168061026e57607f821691505b60208210810361028157610280610227565b5b50919050565b60008190508160005260206000209050919050565b60006020601f8301049050919050565b600082821b905092915050565b6000600883026102e97fffffffffffffffffffffffffffffffffffffffffffffffffffffffffffffffff826102ac565b6102f386836102ac565b95508019841693508086168417925050509392505050565b6000819050919050565b6000819050919050565b600061033a6103356103308461030b565b610315565b61030b565b9050919050565b6000819050919050565b6103548361031f565b61036861036082610341565b8484546102b9565b825550505050565b600090565b61037d610370565b61038881848461034b565b505050565b5b818110156103ac576103a1600082610375565b60018101905061038e565b5050565b601f8211156103f1576103c281610287565b6103cb8461029c565b810160208510156103da578190505b6103ee6103e68561029c565b83018261038d565b50505b505050565b600082821c905092915050565b6000610414600019846008026103f6565b1980831691505092915050565b600061042d8383610403565b9150826002028217905092915050565b610446826101ed565b67ffffffffffffffff81111561045f5761045e6101f8565b5b6104698254610256565b6104748282856103b0565b600060209050601f8311600181146104a75760008415610495578287015190505b61049f8582610421565b865550610507565b601f1984166104b586610287565b60005b828110156104dd578489015182556001820191506020850194506020810190506104b8565b868310156104fa57848901516104f6601f891682610403565b8355505b6001600288020188555050505b505050505050565b600073ffffffffffffffffffffffffffffffffffffffff82169050919050565b600061053a8261050f565b9050919050565b61054a8161052f565b82525050565b60006020820190506105656000830184610541565b92915050565b6136d48061057a6000396000f3fe6080604052600436106101665760003560e01c806375794a3c116100d1578063b88d4fde1161008a578063c87b56dd11610064578063c87b56dd1461053f578063ca267ceb1461057c578063e985e9c5146105a5578063f2fde38b146105e257610166565b8063b88d4fde1461049c578063bc31c1c1146104c5578063bf33e6971461050257610166565b806375794a3c1461038c578063786410c0146103b75780638da5cb5b146103f457806394383f141461041f57806395d89b4114610448578063a22cb4651461047357610166565b806342842e0e1161012357806342842e0e1461027957806354c04873146102a2578063623692d7146102df5780636352211e146102fb57806370a0823114610338578063715018a61461037557610166565b806301ffc9a71461016b57806306fdde03146101a8578063081812fc146101d3578063095ea7b31461021057806323b872dd1461023957806324600fc314610262575b600080fd5b34801561017757600080fd5b50610192600480360381019061018d91906126bf565b61060b565b60405161019f9190612707565b60405180910390f35b3480156101b457600080fd5b506101bd61066c565b6040516101ca91906127b2565b60405180910390f35b3480156101df57600080fd5b506101fa60048036038101906101f5919061280a565b6106fe565b6040516102079190612878565b60405180910390f35b34801561021c57600080fd5b50610237600480360381019061023291906128bf565b61071a565b005b34801561024557600080fd5b50610260600480360381019061025b91906128ff565b610730565b005b34801561026e57600080fd5b50610277610832565b005b34801561028557600080fd5b506102a0600480360381019061029b91906128ff565b61098e565b005b3480156102ae57600080fd5b506102c960048036038101906102c4919061280a565b6109ae565b6040516102d69190612707565b60405180910390f35b6102f960048036038101906102f4919061280a565b6109ce565b005b34801561030757600080fd5b50610322600480360381019061031d919061280a565b610c37565b60405161032f9190612878565b60405180910390f35b34801561034457600080fd5b5061035f600480360381019061035a9190612952565b610c49565b60405161036c919061298e565b60405180910390f35b34801561038157600080fd5b5061038a610d03565b005b34801561039857600080fd5b506103a1610d17565b6040516103ae919061298e565b60405180910390f35b3480156103c357600080fd5b506103de60048036038101906103d99190612ade565b610d1d565b6040516103eb919061298e565b60405180910390f35b34801561040057600080fd5b50610409610e57565b6040516104169190612878565b60405180910390f35b34801561042b57600080fd5b5061044660048036038101906104419190612b61565b610e81565b005b34801561045457600080fd5b5061045d610fbb565b60405161046a91906127b2565b60405180910390f35b34801561047f57600080fd5b5061049a60048036038101906104959190612bcd565b61104d565b005b3480156104a857600080fd5b506104c360048036038101906104be9190612cae565b611063565b005b3480156104d157600080fd5b506104ec60048036038101906104e7919061280a565b611088565b6040516104f9919061298e565b60405180910390f35b34801561050e57600080fd5b506105296004803603810190610524919061280a565b6110a0565b604051610536919061298e565b60405180910390f35b34801561054b57600080fd5b506105666004803603810190610561919061280a565b6110b8565b60405161057391906127b2565b60405180910390f35b34801561058857600080fd5b506105a3600480360381019061059e919061280a565b6111cb565b005b3480156105b157600080fd5b506105cc60048036038101906105c79190612d31565b6112d5565b6040516105d99190612707565b60405180910390f35b3480156105ee57600080fd5b5061060960048036038101906106049190612952565b611369565b005b6000634906490660e01b7bffffffffffffffffffffffffffffffffffffffffffffffffffffffff1916827bffffffffffffffffffffffffffffffffffffffffffffffffffffffff191614806106655750610664826113ef565b5b9050919050565b60606000805461067b90612da0565b80601f01602080910402602001604051908101604052809291908181526020018280546106a790612da0565b80156106f45780601f106106c9576101008083540402835291602001916106f4565b820191906000526020600020905b8154815290600101906020018083116106d757829003601f168201915b5050505050905090565b6000610709826114d1565b5061071382611559565b9050919050565b61072c8282610727611596565b61159e565b5050565b600073ffffffffffffffffffffffffffffffffffffffff168273ffffffffffffffffffffffffffffffffffffffff16036107a25760006040517f64a0ae920000000000000000000000000000000000000000000000000000000081526004016107999190612878565b60405180910390fd5b60006107b683836107b1611596565b6115b0565b90508373ffffffffffffffffffffffffffffffffffffffff168173ffffffffffffffffffffffffffffffffffffffff161461082c578382826040517f64283d7b00000000000000000000000000000000000000000000000000000000815260040161082393929190612dd1565b60405180910390fd5b50505050565b61083a6117ca565b600047905060008111610882576040517f08c379a000000000000000000000000000000000000000000000000000000000815260040161087990612e54565b60405180910390fd5b600061088c610e57565b73ffffffffffffffffffffffffffffffffffffffff16826040516108af90612ea5565b60006040518083038185875af1925050503d80600081146108ec576040519150601f19603f3d011682016040523d82523d6000602084013e6108f1565b606091505b5050905080610935576040517f08c379a000000000000000000000000000000000000000000000000000000000815260040161092c90612f06565b60405180910390fd5b61093d610e57565b73ffffffffffffffffffffffffffffffffffffffff167feaff4b37086828766ad3268786972c0cd24259d4c87a80f9d3963a3c3d999b0d83604051610982919061298e565b60405180910390a25050565b6109a983838360405180602001604052806000815250611063565b505050565b600b6020528060005260406000206000915054906101000a900460ff1681565b600b600082815260200190815260200160002060009054906101000a900460ff16610a2e576040517f08c379a0000000000000000000000000000000000000000000000000000000008152600401610a2590612f72565b60405180910390fd5b600a600082815260200190815260200160002054341015610a84576040517f08c379a0000000000000000000000000000000000000000000000000000000008152600401610a7b90612fde565b60405180910390fd5b6000610a8f82610c37565b90503373ffffffffffffffffffffffffffffffffffffffff168173ffffffffffffffffffffffffffffffffffffffff1603610aff576040517f08c379a0000000000000000000000000000000000000000000000000000000008152600401610af69061304a565b60405180910390fd5b6000600b600084815260200190815260200160002060006101000a81548160ff021916908315150217905550610b36813384611851565b60008173ffffffffffffffffffffffffffffffffffffffff1634604051610b5c90612ea5565b60006040518083038185875af1925050503d8060008114610b99576040519150601f19603f3d011682016040523d82523d6000602084013e610b9e565b606091505b5050905080610be2576040517f08c379a0000000000000000000000000000000000000000000000000000000008152600401610bd9906130b6565b60405180910390fd5b3373ffffffffffffffffffffffffffffffffffffffff167f9de0608e0c163858bf427bd80177d3cb375ee278ebe9f37f6e4f5264f859bf898434604051610c2a9291906130d6565b60405180910390a2505050565b6000610c42826114d1565b9050919050565b60008073ffffffffffffffffffffffffffffffffffffffff168273ffffffffffffffffffffffffffffffffffffffff1603610cbc5760006040517f89c62b64000000000000000000000000000000000000000000000000000000008152600401610cb39190612878565b60405180910390fd5b600360008373ffffffffffffffffffffffffffffffffffffffff1673ffffffffffffffffffffffffffffffffffffffff168152602001908152602001600020549050919050565b610d0b6117ca565b610d1560006119be565b565b60085481565b6000610d276117ca565b60008211610d6a576040517f08c379a0000000000000000000000000000000000000000000000000000000008152600401610d619061314b565b60405180910390fd5b60006008549050610d7b8682611a84565b610d858186611aa2565b83600960008381526020019081526020016000208190555082600a6000838152602001908152602001600020819055506000600b600083815260200190815260200160002060006101000a81548160ff02191690831515021790555060086000815480929190610df49061319a565b91905055508573ffffffffffffffffffffffffffffffffffffffff167f77fb3e46048c7b33ab10547dff01e6c2cfabcaab1af3c0679ae74f8a445fff08828686604051610e43939291906131e2565b60405180910390a280915050949350505050565b6000600760009054906101000a900473ffffffffffffffffffffffffffffffffffffffff16905090565b3373ffffffffffffffffffffffffffffffffffffffff16610ea183610c37565b73ffffffffffffffffffffffffffffffffffffffff1614610ef7576040517f08c379a0000000000000000000000000000000000000000000000000000000008152600401610eee90613265565b60405180910390fd5b60008111610f3a576040517f08c379a0000000000000000000000000000000000000000000000000000000008152600401610f319061314b565b60405180910390fd5b80600a6000848152602001908152602001600020819055506001600b600084815260200190815260200160002060006101000a81548160ff0219169083151502179055507f19cf2ccfe38a4b769a8ae9af4d47537e8354a7e371820be0b2c71ac1e5b31e9e8282604051610faf9291906130d6565b60405180910390a15050565b606060018054610fca90612da0565b80601f0160208091040260200160405190810160405280929190818152602001828054610ff690612da0565b80156110435780601f1061101857610100808354040283529160200191611043565b820191906000526020600020905b81548152906001019060200180831161102657829003601f168201915b5050505050905090565b61105f611058611596565b8383611afe565b5050565b61106e848484610730565b611082611079611596565b85858585611c6d565b50505050565b600a6020528060005260406000206000915090505481565b60096020528060005260406000206000915090505481565b60606110c3826114d1565b5060006006600084815260200190815260200160002080546110e490612da0565b80601f016020809104026020016040519081016040528092919081815260200182805461111090612da0565b801561115d5780601f106111325761010080835404028352916020019161115d565b820191906000526020600020905b81548152906001019060200180831161114057829003601f168201915b50505050509050600061116e611e1e565b905060008151036111835781925050506111c6565b6000825111156111b85780826040516020016111a09291906132c1565b604051602081830303815290604052925050506111c6565b6111c184611e35565b925050505b919050565b3373ffffffffffffffffffffffffffffffffffffffff166111eb82610c37565b73ffffffffffffffffffffffffffffffffffffffff1614611241576040517f08c379a000000000000000000000000000000000000000000000000000000000815260040161123890613265565b60405180910390fd5b61124a81611e9e565b6009600082815260200190815260200160002060009055600a600082815260200190815260200160002060009055600b600082815260200190815260200160002060006101000a81549060ff02191690557f2a9d79b0f66d93896182d11a8e2f1eb2746b81299eaa3aa65c38f9864eb6a753816040516112ca919061298e565b60405180910390a150565b6000600560008473ffffffffffffffffffffffffffffffffffffffff1673ffffffffffffffffffffffffffffffffffffffff16815260200190815260200160002060008373ffffffffffffffffffffffffffffffffffffffff1673ffffffffffffffffffffffffffffffffffffffff16815260200190815260200160002060009054906101000a900460ff16905092915050565b6113716117ca565b600073ffffffffffffffffffffffffffffffffffffffff168173ffffffffffffffffffffffffffffffffffffffff16036113e35760006040517f1e4fbdf70000000000000000000000000000000000000000000000000000000081526004016113da9190612878565b60405180910390fd5b6113ec816119be565b50565b60007f80ac58cd000000000000000000000000000000000000000000000000000000007bffffffffffffffffffffffffffffffffffffffffffffffffffffffff1916827bffffffffffffffffffffffffffffffffffffffffffffffffffffffff191614806114ba57507f5b5e139f000000000000000000000000000000000000000000000000000000007bffffffffffffffffffffffffffffffffffffffffffffffffffffffff1916827bffffffffffffffffffffffffffffffffffffffffffffffffffffffff1916145b806114ca57506114c982611f24565b5b9050919050565b6000806114dd83611f8e565b9050600073ffffffffffffffffffffffffffffffffffffffff168173ffffffffffffffffffffffffffffffffffffffff160361155057826040517f7e273289000000000000000000000000000000000000000000000000000000008152600401611547919061298e565b60405180910390fd5b80915050919050565b60006004600083815260200190815260200160002060009054906101000a900473ffffffffffffffffffffffffffffffffffffffff169050919050565b600033905090565b6115ab8383836001611fcb565b505050565b6000806115bc84611f8e565b9050600073ffffffffffffffffffffffffffffffffffffffff168373ffffffffffffffffffffffffffffffffffffffff16146115fe576115fd818486612190565b5b600073ffffffffffffffffffffffffffffffffffffffff168173ffffffffffffffffffffffffffffffffffffffff161461168f57611640600085600080611fcb565b6001600360008373ffffffffffffffffffffffffffffffffffffffff1673ffffffffffffffffffffffffffffffffffffffff168152602001908152602001600020600082825403925050819055505b600073ffffffffffffffffffffffffffffffffffffffff168573ffffffffffffffffffffffffffffffffffffffff1614611712576001600360008773ffffffffffffffffffffffffffffffffffffffff1673ffffffffffffffffffffffffffffffffffffffff168152602001908152602001600020600082825401925050819055505b846002600086815260200190815260200160002060006101000a81548173ffffffffffffffffffffffffffffffffffffffff021916908373ffffffffffffffffffffffffffffffffffffffff160217905550838573ffffffffffffffffffffffffffffffffffffffff168273ffffffffffffffffffffffffffffffffffffffff167fddf252ad1be2c89b69c2b068fc378daa952ba7f163c4a11628f55a4df523b3ef60405160405180910390a4809150509392505050565b6117d2611596565b73ffffffffffffffffffffffffffffffffffffffff166117f0610e57565b73ffffffffffffffffffffffffffffffffffffffff161461184f57611813611596565b6040517f118cdaa70000000000000000000000000000000000000000000000000000000081526004016118469190612878565b60405180910390fd5b565b600073ffffffffffffffffffffffffffffffffffffffff168273ffffffffffffffffffffffffffffffffffffffff16036118c35760006040517f64a0ae920000000000000000000000000000000000000000000000000000000081526004016118ba9190612878565b60405180910390fd5b60006118d1838360006115b0565b9050600073ffffffffffffffffffffffffffffffffffffffff168173ffffffffffffffffffffffffffffffffffffffff160361194457816040517f7e27328900000000000000000000000000000000000000000000000000000000815260040161193b919061298e565b60405180910390fd5b8373ffffffffffffffffffffffffffffffffffffffff168173ffffffffffffffffffffffffffffffffffffffff16146119b8578382826040517f64283d7b0000000000000000000000000000000000000000000000000000000081526004016119af93929190612dd1565b60405180910390fd5b50505050565b6000600760009054906101000a900473ffffffffffffffffffffffffffffffffffffffff16905081600760006101000a81548173ffffffffffffffffffffffffffffffffffffffff021916908373ffffffffffffffffffffffffffffffffffffffff1602179055508173ffffffffffffffffffffffffffffffffffffffff168173ffffffffffffffffffffffffffffffffffffffff167f8be0079c531659141344cd1fd0a4f28419497f9722a3daafe3b4186f6b6457e060405160405180910390a35050565b611a9e828260405180602001604052806000815250612254565b5050565b80600660008481526020019081526020016000209081611ac29190613491565b507ff8e1a15aba9398e019f0b49df1a4fde98ee17ae345cb5f6b5e2c27f5033e8ce782604051611af2919061298e565b60405180910390a15050565b600073ffffffffffffffffffffffffffffffffffffffff168273ffffffffffffffffffffffffffffffffffffffff1603611b6f57816040517f5b08ba18000000000000000000000000000000000000000000000000000000008152600401611b669190612878565b60405180910390fd5b80600560008573ffffffffffffffffffffffffffffffffffffffff1673ffffffffffffffffffffffffffffffffffffffff16815260200190815260200160002060008473ffffffffffffffffffffffffffffffffffffffff1673ffffffffffffffffffffffffffffffffffffffff16815260200190815260200160002060006101000a81548160ff0219169083151502179055508173ffffffffffffffffffffffffffffffffffffffff168373ffffffffffffffffffffffffffffffffffffffff167f17307eab39ab6107e8899845ad3d59bd9653f200f220920489ca2b5937696c3183604051611c609190612707565b60405180910390a3505050565b60008373ffffffffffffffffffffffffffffffffffffffff163b1115611e17578273ffffffffffffffffffffffffffffffffffffffff1663150b7a02868685856040518563ffffffff1660e01b8152600401611ccc94939291906135b8565b6020604051808303816000875af1925050508015611d0857506040513d601f19601f82011682018060405250810190611d059190613619565b60015b611d8c573d8060008114611d38576040519150601f19603f3d011682016040523d82523d6000602084013e611d3d565b606091505b506000815103611d8457836040517f64a0ae92000000000000000000000000000000000000000000000000000000008152600401611d7b9190612878565b60405180910390fd5b805181602001fd5b63150b7a0260e01b7bffffffffffffffffffffffffffffffffffffffffffffffffffffffff1916817bffffffffffffffffffffffffffffffffffffffffffffffffffffffff191614611e1557836040517f64a0ae92000000000000000000000000000000000000000000000000000000008152600401611e0c9190612878565b60405180910390fd5b505b5050505050565b606060405180602001604052806000815250905090565b6060611e40826114d1565b506000611e4b611e1e565b90506000815111611e6b5760405180602001604052806000815250611e96565b80611e7584612278565b604051602001611e869291906132c1565b6040516020818303038152906040525b915050919050565b6000611ead60008360006115b0565b9050600073ffffffffffffffffffffffffffffffffffffffff168173ffffffffffffffffffffffffffffffffffffffff1603611f2057816040517f7e273289000000000000000000000000000000000000000000000000000000008152600401611f17919061298e565b60405180910390fd5b5050565b60007f01ffc9a7000000000000000000000000000000000000000000000000000000007bffffffffffffffffffffffffffffffffffffffffffffffffffffffff1916827bffffffffffffffffffffffffffffffffffffffffffffffffffffffff1916149050919050565b60006002600083815260200190815260200160002060009054906101000a900473ffffffffffffffffffffffffffffffffffffffff169050919050565b80806120045750600073ffffffffffffffffffffffffffffffffffffffff168273ffffffffffffffffffffffffffffffffffffffff1614155b15612138576000612014846114d1565b9050600073ffffffffffffffffffffffffffffffffffffffff168373ffffffffffffffffffffffffffffffffffffffff161415801561207f57508273ffffffffffffffffffffffffffffffffffffffff168173ffffffffffffffffffffffffffffffffffffffff1614155b8015612092575061209081846112d5565b155b156120d457826040517fa9fbf51f0000000000000000000000000000000000000000000000000000000081526004016120cb9190612878565b60405180910390fd5b811561213657838573ffffffffffffffffffffffffffffffffffffffff168273ffffffffffffffffffffffffffffffffffffffff167f8c5be1e5ebec7d5bd14f71427d1e84f3dd0314c0f7b2291e5b200ac8c7c3b92560405160405180910390a45b505b836004600085815260200190815260200160002060006101000a81548173ffffffffffffffffffffffffffffffffffffffff021916908373ffffffffffffffffffffffffffffffffffffffff16021790555050505050565b61219b838383612346565b61224f57600073ffffffffffffffffffffffffffffffffffffffff168373ffffffffffffffffffffffffffffffffffffffff160361221057806040517f7e273289000000000000000000000000000000000000000000000000000000008152600401612207919061298e565b60405180910390fd5b81816040517f177e802f000000000000000000000000000000000000000000000000000000008152600401612246929190613646565b60405180910390fd5b505050565b61225e8383612407565b612273612269611596565b6000858585611c6d565b505050565b60606000600161228784612500565b01905060008167ffffffffffffffff8111156122a6576122a56129b3565b5b6040519080825280601f01601f1916602001820160405280156122d85781602001600182028036833780820191505090505b509050600082602001820190505b60011561233b578080600190039150507f3031323334353637383961626364656600000000000000000000000000000000600a86061a8153600a858161232f5761232e61366f565b5b049450600085036122e6575b819350505050919050565b60008073ffffffffffffffffffffffffffffffffffffffff168373ffffffffffffffffffffffffffffffffffffffff16141580156123fe57508273ffffffffffffffffffffffffffffffffffffffff168473ffffffffffffffffffffffffffffffffffffffff1614806123bf57506123be84846112d5565b5b806123fd57508273ffffffffffffffffffffffffffffffffffffffff166123e583611559565b73ffffffffffffffffffffffffffffffffffffffff16145b5b90509392505050565b600073ffffffffffffffffffffffffffffffffffffffff168273ffffffffffffffffffffffffffffffffffffffff16036124795760006040517f64a0ae920000000000000000000000000000000000000000000000000000000081526004016124709190612878565b60405180910390fd5b6000612487838360006115b0565b9050600073ffffffffffffffffffffffffffffffffffffffff168173ffffffffffffffffffffffffffffffffffffffff16146124fb5760006040517f73c6ac6e0000000000000000000000000000000000000000000000000000000081526004016124f29190612878565b60405180910390fd5b505050565b600080600090507a184f03e93ff9f4daa797ed6e38ed64bf6a1f010000000000000000831061255e577a184f03e93ff9f4daa797ed6e38ed64bf6a1f01000000000000000083816125545761255361366f565b5b0492506040810190505b6d04ee2d6d415b85acef8100000000831061259b576d04ee2d6d415b85acef810000000083816125915761259061366f565b5b0492506020810190505b662386f26fc1000083106125ca57662386f26fc1000083816125c0576125bf61366f565b5b0492506010810190505b6305f5e10083106125f3576305f5e10083816125e9576125e861366f565b5b0492506008810190505b612710831061261857612710838161260e5761260d61366f565b5b0492506004810190505b6064831061263b57606483816126315761263061366f565b5b0492506002810190505b600a831061264a576001810190505b80915050919050565b6000604051905090565b600080fd5b600080fd5b60007fffffffff0000000000000000000000000000000000000000000000000000000082169050919050565b61269c81612667565b81146126a757600080fd5b50565b6000813590506126b981612693565b92915050565b6000602082840312156126d5576126d461265d565b5b60006126e3848285016126aa565b91505092915050565b60008115159050919050565b612701816126ec565b82525050565b600060208201905061271c60008301846126f8565b92915050565b600081519050919050565b600082825260208201905092915050565b60005b8381101561275c578082015181840152602081019050612741565b60008484015250505050565b6000601f19601f8301169050919050565b600061278482612722565b61278e818561272d565b935061279e81856020860161273e565b6127a781612768565b840191505092915050565b600060208201905081810360008301526127cc8184612779565b905092915050565b6000819050919050565b6127e7816127d4565b81146127f257600080fd5b50565b600081359050612804816127de565b92915050565b6000602082840312156128205761281f61265d565b5b600061282e848285016127f5565b91505092915050565b600073ffffffffffffffffffffffffffffffffffffffff82169050919050565b600061286282612837565b9050919050565b61287281612857565b82525050565b600060208201905061288d6000830184612869565b92915050565b61289c81612857565b81146128a757600080fd5b50565b6000813590506128b981612893565b92915050565b600080604083850312156128d6576128d561265d565b5b60006128e4858286016128aa565b92505060206128f5858286016127f5565b9150509250929050565b6000806000606084860312156129185761291761265d565b5b6000612926868287016128aa565b9350506020612937868287016128aa565b9250506040612948868287016127f5565b9150509250925092565b6000602082840312156129685761296761265d565b5b6000612976848285016128aa565b91505092915050565b612988816127d4565b82525050565b60006020820190506129a3600083018461297f565b92915050565b600080fd5b600080fd5b7f4e487b7100000000000000000000000000000000000000000000000000000000600052604160045260246000fd5b6129eb82612768565b810181811067ffffffffffffffff82111715612a0a57612a096129b3565b5b80604052505050565b6000612a1d612653565b9050612a2982826129e2565b919050565b600067ffffffffffffffff821115612a4957612a486129b3565b5b612a5282612768565b9050602081019050919050565b82818337600083830152505050565b6000612a81612a7c84612a2e565b612a13565b905082815260208101848484011115612a9d57612a9c6129ae565b5b612aa8848285612a5f565b509392505050565b600082601f830112612ac557612ac46129a9565b5b8135612ad5848260208601612a6e565b91505092915050565b60008060008060808587031215612af857612af761265d565b5b6000612b06878288016128aa565b945050602085013567ffffffffffffffff811115612b2757612b26612662565b5b612b3387828801612ab0565b9350506040612b44878288016127f5565b9250506060612b55878288016127f5565b91505092959194509250565b60008060408385031215612b7857612b7761265d565b5b6000612b86858286016127f5565b9250506020612b97858286016127f5565b9150509250929050565b612baa816126ec565b8114612bb557600080fd5b50565b600081359050612bc781612ba1565b92915050565b60008060408385031215612be457612be361265d565b5b6000612bf2858286016128aa565b9250506020612c0385828601612bb8565b9150509250929050565b600067ffffffffffffffff821115612c2857612c276129b3565b5b612c3182612768565b9050602081019050919050565b6000612c51612c4c84612c0d565b612a13565b905082815260208101848484011115612c6d57612c6c6129ae565b5b612c78848285612a5f565b509392505050565b600082601f830112612c9557612c946129a9565b5b8135612ca5848260208601612c3e565b91505092915050565b60008060008060808587031215612cc857612cc761265d565b5b6000612cd6878288016128aa565b9450506020612ce7878288016128aa565b9350506040612cf8878288016127f5565b925050606085013567ffffffffffffffff811115612d1957612d18612662565b5b612d2587828801612c80565b91505092959194509250565b60008060408385031215612d4857612d4761265d565b5b6000612d56858286016128aa565b9250506020612d67858286016128aa565b9150509250929050565b7f4e487b7100000000000000000000000000000000000000000000000000000000600052602260045260246000fd5b60006002820490506001821680612db857607f821691505b602082108103612dcb57612dca612d71565b5b50919050565b6000606082019050612de66000830186612869565b612df3602083018561297f565b612e006040830184612869565b949350505050565b7f4e6f2066756e647320746f207769746864726177000000000000000000000000600082015250565b6000612e3e60148361272d565b9150612e4982612e08565b602082019050919050565b60006020820190508181036000830152612e6d81612e31565b9050919050565b600081905092915050565b50565b6000612e8f600083612e74565b9150612e9a82612e7f565b600082019050919050565b6000612eb082612e82565b9150819050919050565b7f5769746864726177616c206661696c6564000000000000000000000000000000600082015250565b6000612ef060118361272d565b9150612efb82612eba565b602082019050919050565b60006020820190508181036000830152612f1f81612ee3565b9050919050565b7f4e4654206973206e6f7420666f722073616c6500000000000000000000000000600082015250565b6000612f5c60138361272d565b9150612f6782612f26565b602082019050919050565b60006020820190508181036000830152612f8b81612f4f565b9050919050565b7f496e73756666696369656e74207061796d656e74000000000000000000000000600082015250565b6000612fc860148361272d565b9150612fd382612f92565b602082019050919050565b60006020820190508181036000830152612ff781612fbb565b9050919050565b7f43616e6e6f742062757920796f7572206f776e204e4654000000000000000000600082015250565b600061303460178361272d565b915061303f82612ffe565b602082019050919050565b6000602082019050818103600083015261306381613027565b9050919050565b7f5472616e73666572206661696c65640000000000000000000000000000000000600082015250565b60006130a0600f8361272d565b91506130ab8261306a565b602082019050919050565b600060208201905081810360008301526130cf81613093565b9050919050565b60006040820190506130eb600083018561297f565b6130f8602083018461297f565b9392505050565b7f5072696365206d7573742062652067726561746572207468616e207a65726f00600082015250565b6000613135601f8361272d565b9150613140826130ff565b602082019050919050565b6000602082019050818103600083015261316481613128565b9050919050565b7f4e487b7100000000000000000000000000000000000000000000000000000000600052601160045260246000fd5b60006131a5826127d4565b91507fffffffffffffffffffffffffffffffffffffffffffffffffffffffffffffffff82036131d7576131d661316b565b5b600182019050919050565b60006060820190506131f7600083018661297f565b613204602083018561297f565b613211604083018461297f565b949350505050565b7f4e6f7420746865206f776e657200000000000000000000000000000000000000600082015250565b600061324f600d8361272d565b915061325a82613219565b602082019050919050565b6000602082019050818103600083015261327e81613242565b9050919050565b600081905092915050565b600061329b82612722565b6132a58185613285565b93506132b581856020860161273e565b80840191505092915050565b60006132cd8285613290565b91506132d98284613290565b91508190509392505050565b60008190508160005260206000209050919050565b60006020601f8301049050919050565b600082821b905092915050565b6000600883026133477fffffffffffffffffffffffffffffffffffffffffffffffffffffffffffffffff8261330a565b613351868361330a565b95508019841693508086168417925050509392505050565b6000819050919050565b600061338e613389613384846127d4565b613369565b6127d4565b9050919050565b6000819050919050565b6133a883613373565b6133bc6133b482613395565b848454613317565b825550505050565b600090565b6133d16133c4565b6133dc81848461339f565b505050565b5b81811015613400576133f56000826133c9565b6001810190506133e2565b5050565b601f82111561344557613416816132e5565b61341f846132fa565b8101602085101561342e578190505b61344261343a856132fa565b8301826133e1565b50505b505050565b600082821c905092915050565b60006134686000198460080261344a565b1980831691505092915050565b60006134818383613457565b9150826002028217905092915050565b61349a82612722565b67ffffffffffffffff8111156134b3576134b26129b3565b5b6134bd8254612da0565b6134c8828285613404565b600060209050601f8311600181146134fb57600084156134e9578287015190505b6134f38582613475565b86555061355b565b601f198416613509866132e5565b60005b828110156135315784890151825560018201915060208501945060208101905061350c565b8683101561354e578489015161354a601f891682613457565b8355505b6001600288020188555050505b505050505050565b600081519050919050565b600082825260208201905092915050565b600061358a82613563565b613594818561356e565b93506135a481856020860161273e565b6135ad81612768565b840191505092915050565b60006080820190506135cd6000830187612869565b6135da6020830186612869565b6135e7604083018561297f565b81810360608301526135f9818461357f565b905095945050505050565b60008151905061361381612693565b92915050565b60006020828403121561362f5761362e61265d565b5b600061363d84828501613604565b91505092915050565b600060408201905061365b6000830185612869565b613668602083018461297f565b9392505050565b7f4e487b7100000000000000000000000000000000000000000000000000000000600052601260045260246000fdfea2646970667358221220546e13db36335bced05e3fce2e779fdae9515311d412fbdba5c8313e1fc4782d64736f6c634300081c0033",
  "linkReferences": {},
  "deployedLinkReferences": {}
}