{
  "_format": "hh-sol-artifact-1",
  "contractName": "EnergyNFTMarketplace",
  "sourceName": "contracts/EnergyNFTMarketplace.sol",
  "abi": [
    {
      "inputs": [],
      "stateMutability": "nonpayable",
      "type": "constructor"
    },
    {
      "inputs": [
        {
          "internalType": "address",
          "name": "sender",
          "type": "address"
        },
        {
          "internalType": "uint256",
          "name": "tokenId",
          "type": "uint256"
        },
        {
          "internalType": "address",
          "name": "owner",
          "type": "address"
        }
      ],
      "name": "ERC721IncorrectOwner",
      "type": "error"
    },
    {
      "inputs": [
        {
          "internalType": "address",
          "name": "operator",
          "type": "address"
        },
        {
          "internalType": "uint256",
          "name": "tokenId",
          "type": "uint256"
        }
      ],
      "name": "ERC721InsufficientApproval",
      "type": "error"
    },
    {
      "inputs": [
        {
          "internalType": "address",
          "name": "approver",
          "type": "address"
        }
      ],
      "name": "ERC721InvalidApprover",
      "type": "error"
    },
    {
      "inputs": [
        {
          "internalType": "address",
          "name": "operator",
          "type": "address"
        }
      ],
      "name": "ERC721InvalidOperator",
      "type": "error"
    },
    {
      "inputs": [
        {
          "internalType": "address",
          "name": "owner",
          "type": "address"
        }
      ],
      "name": "ERC721InvalidOwner",
      "type": "error"
    },
    {
      "inputs": [
        {
          "internalType": "address",
          "name": "receiver",
          "type": "address"
        }
      ],
      "name": "ERC721InvalidReceiver",
      "type": "error"
    },
    {
      "inputs": [
        {
          "internalType": "address",
          "name": "sender",
          "type": "address"
        }
      ],
      "name": "ERC721InvalidSender",
      "type": "error"
    },
    {
      "inputs": [
        {
          "internalType": "uint256",
          "name": "tokenId",
          "type": "uint256"
        }
      ],
      "name": "ERC721NonexistentToken",
      "type": "error"
    },
    {
      "inputs": [
        {
          "internalType": "address",
          "name": "owner",
          "type": "address"
        }
      ],
      "name": "OwnableInvalidOwner",
      "type": "error"
    },
    {
      "inputs": [
        {
          "internalType": "address",
          "name": "account",
          "type": "address"
        }
      ],
      "name": "OwnableUnauthorizedAccount",
      "type": "error"
    },
    {
      "anonymous": false,
      "inputs": [
        {
          "indexed": true,
          "internalType": "address",
          "name": "owner",
          "type": "address"
        },
        {
          "indexed": true,
          "internalType": "address",
          "name": "approved",
          "type": "address"
        },
        {
          "indexed": true,
          "internalType": "uint256",
          "name": "tokenId",
          "type": "uint256"
        }
      ],
      "name": "Approval",
      "type": "event"
    },
    {
      "anonymous": false,
      "inputs": [
        {
          "indexed": true,
          "internalType": "address",
          "name": "owner",
          "type": "address"
        },
        {
          "indexed": true,
          "internalType": "address",
          "name": "operator",
          "type": "address"
        },
        {
          "indexed": false,
          "internalType": "bool",
          "name": "approved",
          "type": "bool"
        }
      ],
      "name": "ApprovalForAll",
      "type": "event"
    },
    {
      "anonymous": false,
      "inputs": [
        {
          "indexed": false,
          "internalType": "uint256",
          "name": "_fromTokenId",
          "type": "uint256"
        },
        {
          "indexed": false,
          "internalType": "uint256",
          "name": "_toTokenId",
          "type": "uint256"
        }
      ],
      "name": "BatchMetadataUpdate",
      "type": "event"
    },
    {
      "anonymous": false,
      "inputs": [
        {
          "indexed": false,
          "internalType": "uint256",
          "name": "tokenId",
          "type": "uint256"
        }
      ],
      "name": "EnergyNFTBurned",
      "type": "event"
    },
    {
      "anonymous": false,
      "inputs": [
        {
          "indexed": true,
          "internalType": "address",
          "name": "recipient",
          "type": "address"
        },
        {
          "indexed": false,
          "internalType": "uint256",
          "name": "tokenId",
          "type": "uint256"
        },
        {
          "indexed": false,
          "internalType": "uint256",
          "name": "energyAmount",
          "type": "uint256"
        },
        {
          "indexed": false,
          "internalType": "uint256",
          "name": "price",
          "type": "uint256"
        }
      ],
      "name": "EnergyNFTMinted",
      "type": "event"
    },
    {
      "anonymous": false,
      "inputs": [
        {
          "indexed": true,
          "internalType": "address",
          "name": "buyer",
          "type": "address"
        },
        {
          "indexed": false,
          "internalType": "uint256",
          "name": "tokenId",
          "type": "uint256"
        },
        {
          "indexed": false,
          "internalType": "uint256",
          "name": "price",
          "type": "uint256"
        }
      ],
      "name": "EnergyNFTSold",
      "type": "event"
    },
    {
      "anonymous": false,
      "inputs": [
        {
          "indexed": false,
          "internalType": "uint256",
          "name": "_tokenId",
          "type": "uint256"
        }
      ],
      "name": "MetadataUpdate",
      "type": "event"
    },
    {
      "anonymous": false,
      "inputs": [
        {
          "indexed": true,
          "internalType": "address",
          "name": "previousOwner",
          "type": "address"
        },
        {
          "indexed": true,
          "internalType": "address",
          "name": "newOwner",
          "type": "address"
        }
      ],
      "name": "OwnershipTransferred",
      "type": "event"
    },
    {
      "anonymous": false,
      "inputs": [
        {
          "indexed": true,
          "internalType": "address",
          "name": "from",
          "type": "address"
        },
        {
          "indexed": true,
          "internalType": "address",
          "name": "to",
          "type": "address"
        },
        {
          "indexed": true,
          "internalType": "uint256",
          "name": "tokenId",
          "type": "uint256"
        }
      ],
      "name": "Transfer",
      "type": "event"
    },
    {
      "inputs": [
        {
          "internalType": "address",
          "name": "to",
          "type": "address"
        },
        {
          "internalType": "uint256",
          "name": "tokenId",
          "type": "uint256"
        }
      ],
      "name": "approve",
      "outputs": [],
      "stateMutability": "nonpayable",
      "type": "function"
    },
    {
      "inputs": [
        {
          "internalType": "address",
          "name": "owner",
          "type": "address"
        }
      ],
      "name": "balanceOf",
      "outputs": [
        {
          "internalType": "uint256",
          "name": "",
          "type": "uint256"
        }
      ],
      "stateMutability": "view",
      "type": "function"
    },
    {
      "inputs": [
        {
          "internalType": "uint256",
          "name": "tokenId",
          "type": "uint256"
        }
      ],
      "name": "burnEnergyNFT",
      "outputs": [],
      "stateMutability": "nonpayable",
      "type": "function"
    },
    {
      "inputs": [
        {
          "internalType": "uint256",
          "name": "tokenId",
          "type": "uint256"
        }
      ],
      "name": "buyEnergyNFT",
      "outputs": [],
      "stateMutability": "payable",
      "type": "function"
    },
    {
      "inputs": [
        {
          "internalType": "uint256",
          "name": "",
          "type": "uint256"
        }
      ],
      "name": "energyUnits",
      "outputs": [
        {
          "internalType": "uint256",
          "name": "",
          "type": "uint256"
        }
      ],
      "stateMutability": "view",
      "type": "function"
    },
    {
      "inputs": [
        {
          "internalType": "uint256",
          "name": "tokenId",
          "type": "uint256"
        }
      ],
      "name": "getApproved",
      "outputs": [
        {
          "internalType": "address",
          "name": "",
          "type": "address"
        }
      ],
      "stateMutability": "view",
      "type": "function"
    },
    {
      "inputs": [
        {
          "internalType": "address",
          "name": "owner",
          "type": "address"
        },
        {
          "internalType": "address",
          "name": "operator",
          "type": "address"
        }
      ],
      "name": "isApprovedForAll",
      "outputs": [
        {
          "internalType": "bool",
          "name": "",
          "type": "bool"
        }
      ],
      "stateMutability": "view",
      "type": "function"
    },
    {
      "inputs": [
        {
          "internalType": "address",
          "name": "recipient",
          "type": "address"
        },
        {
          "internalType": "string",
          "name": "tokenURI",
          "type": "string"
        },
        {
          "internalType": "uint256",
          "name": "energyAmount",
          "type": "uint256"
        },
        {
          "internalType": "uint256",
          "name": "price",
          "type": "uint256"
        }
      ],
      "name": "mintEnergyNFT",
      "outputs": [],
      "stateMutability": "nonpayable",
      "type": "function"
    },
    {
      "inputs": [],
      "name": "name",
      "outputs": [
        {
          "internalType": "string",
          "name": "",
          "type": "string"
        }
      ],
      "stateMutability": "view",
      "type": "function"
    },
    {
      "inputs": [],
      "name": "nextTokenId",
      "outputs": [
        {
          "internalType": "uint256",
          "name": "",
          "type": "uint256"
        }
      ],
      "stateMutability": "view",
      "type": "function"
    },
    {
      "inputs": [],
      "name": "owner",
      "outputs": [
        {
          "internalType": "address",
          "name": "",
          "type": "address"
        }
      ],
      "stateMutability": "view",
      "type": "function"
    },
    {
      "inputs": [
        {
          "internalType": "uint256",
          "name": "tokenId",
          "type": "uint256"
        }
      ],
      "name": "ownerOf",
      "outputs": [
        {
          "internalType": "address",
          "name": "",
          "type": "address"
        }
      ],
      "stateMutability": "view",
      "type": "function"
    },
    {
      "inputs": [
        {
          "internalType": "uint256",
          "name": "",
          "type": "uint256"
        }
      ],
      "name": "prices",
      "outputs": [
        {
          "internalType": "uint256",
          "name": "",
          "type": "uint256"
        }
      ],
      "stateMutability": "view",
      "type": "function"
    },
    {
      "inputs": [],
      "name": "renounceOwnership",
      "outputs": [],
      "stateMutability": "nonpayable",
      "type": "function"
    },
    {
      "inputs": [
        {
          "internalType": "address",
          "name": "from",
          "type": "address"
        },
        {
          "internalType": "address",
          "name": "to",
          "type": "address"
        },
        {
          "internalType": "uint256",
          "name": "tokenId",
          "type": "uint256"
        }
      ],
      "name": "safeTransferFrom",
      "outputs": [],
      "stateMutability": "nonpayable",
      "type": "function"
    },
    {
      "inputs": [
        {
          "internalType": "address",
          "name": "from",
          "type": "address"
        },
        {
          "internalType": "address",
          "name": "to",
          "type": "address"
        },
        {
          "internalType": "uint256",
          "name": "tokenId",
          "type": "uint256"
        },
        {
          "internalType": "bytes",
          "name": "data",
          "type": "bytes"
        }
      ],
      "name": "safeTransferFrom",
      "outputs": [],
      "stateMutability": "nonpayable",
      "type": "function"
    },
    {
      "inputs": [
        {
          "internalType": "address",
          "name": "operator",
          "type": "address"
        },
        {
          "internalType": "bool",
          "name": "approved",
          "type": "bool"
        }
      ],
      "name": "setApprovalForAll",
      "outputs": [],
      "stateMutability": "nonpayable",
      "type": "function"
    },
    {
      "inputs": [
        {
          "internalType": "bytes4",
          "name": "interfaceId",
          "type": "bytes4"
        }
      ],
      "name": "supportsInterface",
      "outputs": [
        {
          "internalType": "bool",
          "name": "",
          "type": "bool"
        }
      ],
      "stateMutability": "view",
      "type": "function"
    },
    {
      "inputs": [],
      "name": "symbol",
      "outputs": [
        {
          "internalType": "string",
          "name": "",
          "type": "string"
        }
      ],
      "stateMutability": "view",
      "type": "function"
    },
    {
      "inputs": [
        {
          "internalType": "uint256",
          "name": "tokenId",
          "type": "uint256"
        }
      ],
      "name": "tokenURI",
      "outputs": [
        {
          "internalType": "string",
          "name": "",
          "type": "string"
        }
      ],
      "stateMutability": "view",
      "type": "function"
    },
    {
      "inputs": [
        {
          "internalType": "address",
          "name": "from",
          "type": "address"
        },
        {
          "internalType": "address",
          "name": "to",
          "type": "address"
        },
        {
          "internalType": "uint256",
          "name": "tokenId",
          "type": "uint256"
        }
      ],
      "name": "transferFrom",
      "outputs": [],
      "stateMutability": "nonpayable",
      "type": "function"
    },
    {
      "inputs": [
        {
          "internalType": "address",
          "name": "newOwner",
          "type": "address"
        }
      ],
      "name": "transferOwnership",
      "outputs": [],
      "stateMutability": "nonpayable",
      "type": "function"
    }
  ],
  "bytecode": "0x608060405234801561001057600080fd5b50336040518060400160405280600b81526020017f456e65726779546f6b656e0000000000000000000000000000000000000000008152506040518060400160405280600381526020017f454e540000000000000000000000000000000000000000000000000000000000815250816000908161008d919061043d565b50806001908161009d919061043d565b505050600073ffffffffffffffffffffffffffffffffffffffff168173ffffffffffffffffffffffffffffffffffffffff16036101125760006040517f1e4fbdf70000000000000000000000000000000000000000000000000000000081526004016101099190610550565b60405180910390fd5b6101218161012760201b60201c565b5061056b565b6000600760009054906101000a900473ffffffffffffffffffffffffffffffffffffffff16905081600760006101000a81548173ffffffffffffffffffffffffffffffffffffffff021916908373ffffffffffffffffffffffffffffffffffffffff1602179055508173ffffffffffffffffffffffffffffffffffffffff168173ffffffffffffffffffffffffffffffffffffffff167f8be0079c531659141344cd1fd0a4f28419497f9722a3daafe3b4186f6b6457e060405160405180910390a35050565b600081519050919050565b7f4e487b7100000000000000000000000000000000000000000000000000000000600052604160045260246000fd5b7f4e487b7100000000000000000000000000000000000000000000000000000000600052602260045260246000fd5b6000600282049050600182168061026e57607f821691505b60208210810361028157610280610227565b5b50919050565b60008190508160005260206000209050919050565b60006020601f8301049050919050565b600082821b905092915050565b6000600883026102e97fffffffffffffffffffffffffffffffffffffffffffffffffffffffffffffffff826102ac565b6102f386836102ac565b95508019841693508086168417925050509392505050565b6000819050919050565b6000819050919050565b600061033a6103356103308461030b565b610315565b61030b565b9050919050565b6000819050919050565b6103548361031f565b61036861036082610341565b8484546102b9565b825550505050565b600090565b61037d610370565b61038881848461034b565b505050565b5b818110156103ac576103a1600082610375565b60018101905061038e565b5050565b601f8211156103f1576103c281610287565b6103cb8461029c565b810160208510156103da578190505b6103ee6103e68561029c565b83018261038d565b50505b505050565b600082821c905092915050565b6000610414600019846008026103f6565b1980831691505092915050565b600061042d8383610403565b9150826002028217905092915050565b610446826101ed565b67ffffffffffffffff81111561045f5761045e6101f8565b5b6104698254610256565b6104748282856103b0565b600060209050601f8311600181146104a75760008415610495578287015190505b61049f8582610421565b865550610507565b601f1984166104b586610287565b60005b828110156104dd578489015182556001820191506020850194506020810190506104b8565b868310156104fa57848901516104f6601f891682610403565b8355505b6001600288020188555050505b505050505050565b600073ffffffffffffffffffffffffffffffffffffffff82169050919050565b600061053a8261050f565b9050919050565b61054a8161052f565b82525050565b60006020820190506105656000830184610541565b92915050565b6130f68061057a6000396000f3fe6080604052600436106101355760003560e01c8063786410c0116100ab578063bc31c1c11161006f578063bc31c1c114610403578063bf33e69714610440578063c87b56dd1461047d578063ca267ceb146104ba578063e985e9c5146104e3578063f2fde38b1461052057610135565b8063786410c0146103325780638da5cb5b1461035b57806395d89b4114610386578063a22cb465146103b1578063b88d4fde146103da57610135565b806342842e0e116100fd57806342842e0e14610231578063623692d71461025a5780636352211e1461027657806370a08231146102b3578063715018a6146102f057806375794a3c1461030757610135565b806301ffc9a71461013a57806306fdde0314610177578063081812fc146101a2578063095ea7b3146101df57806323b872dd14610208575b600080fd5b34801561014657600080fd5b50610161600480360381019061015c9190612265565b610549565b60405161016e91906122ad565b60405180910390f35b34801561018357600080fd5b5061018c6105aa565b6040516101999190612358565b60405180910390f35b3480156101ae57600080fd5b506101c960048036038101906101c491906123b0565b61063c565b6040516101d6919061241e565b60405180910390f35b3480156101eb57600080fd5b5061020660048036038101906102019190612465565b610658565b005b34801561021457600080fd5b5061022f600480360381019061022a91906124a5565b61066e565b005b34801561023d57600080fd5b50610258600480360381019061025391906124a5565b610770565b005b610274600480360381019061026f91906123b0565b610790565b005b34801561028257600080fd5b5061029d600480360381019061029891906123b0565b61096d565b6040516102aa919061241e565b60405180910390f35b3480156102bf57600080fd5b506102da60048036038101906102d591906124f8565b61097f565b6040516102e79190612534565b60405180910390f35b3480156102fc57600080fd5b50610305610a39565b005b34801561031357600080fd5b5061031c610a4d565b6040516103299190612534565b60405180910390f35b34801561033e57600080fd5b5061035960048036038101906103549190612684565b610a53565b005b34801561036757600080fd5b50610370610b5a565b60405161037d919061241e565b60405180910390f35b34801561039257600080fd5b5061039b610b84565b6040516103a89190612358565b60405180910390f35b3480156103bd57600080fd5b506103d860048036038101906103d39190612733565b610c16565b005b3480156103e657600080fd5b5061040160048036038101906103fc9190612814565b610c2c565b005b34801561040f57600080fd5b5061042a600480360381019061042591906123b0565b610c51565b6040516104379190612534565b60405180910390f35b34801561044c57600080fd5b50610467600480360381019061046291906123b0565b610c69565b6040516104749190612534565b60405180910390f35b34801561048957600080fd5b506104a4600480360381019061049f91906123b0565b610c81565b6040516104b19190612358565b60405180910390f35b3480156104c657600080fd5b506104e160048036038101906104dc91906123b0565b610d94565b005b3480156104ef57600080fd5b5061050a60048036038101906105059190612897565b610e7b565b60405161051791906122ad565b60405180910390f35b34801561052c57600080fd5b50610547600480360381019061054291906124f8565b610f0f565b005b6000634906490660e01b7bffffffffffffffffffffffffffffffffffffffffffffffffffffffff1916827bffffffffffffffffffffffffffffffffffffffffffffffffffffffff191614806105a357506105a282610f95565b5b9050919050565b6060600080546105b990612906565b80601f01602080910402602001604051908101604052809291908181526020018280546105e590612906565b80156106325780601f1061060757610100808354040283529160200191610632565b820191906000526020600020905b81548152906001019060200180831161061557829003601f168201915b5050505050905090565b600061064782611077565b50610651826110ff565b9050919050565b61066a828261066561113c565b611144565b5050565b600073ffffffffffffffffffffffffffffffffffffffff168273ffffffffffffffffffffffffffffffffffffffff16036106e05760006040517f64a0ae920000000000000000000000000000000000000000000000000000000081526004016106d7919061241e565b60405180910390fd5b60006106f483836106ef61113c565b611156565b90508373ffffffffffffffffffffffffffffffffffffffff168173ffffffffffffffffffffffffffffffffffffffff161461076a578382826040517f64283d7b00000000000000000000000000000000000000000000000000000000815260040161076193929190612937565b60405180910390fd5b50505050565b61078b83838360405180602001604052806000815250610c2c565b505050565b600a6000828152602001908152602001600020543410156107e6576040517f08c379a00000000000000000000000000000000000000000000000000000000081526004016107dd906129ba565b60405180910390fd5b60006107f18261096d565b90503373ffffffffffffffffffffffffffffffffffffffff168173ffffffffffffffffffffffffffffffffffffffff1603610861576040517f08c379a000000000000000000000000000000000000000000000000000000000815260040161085890612a26565b60405180910390fd5b61086c813384611370565b60008173ffffffffffffffffffffffffffffffffffffffff163460405161089290612a77565b60006040518083038185875af1925050503d80600081146108cf576040519150601f19603f3d011682016040523d82523d6000602084013e6108d4565b606091505b5050905080610918576040517f08c379a000000000000000000000000000000000000000000000000000000000815260040161090f90612ad8565b60405180910390fd5b3373ffffffffffffffffffffffffffffffffffffffff167f9de0608e0c163858bf427bd80177d3cb375ee278ebe9f37f6e4f5264f859bf898434604051610960929190612af8565b60405180910390a2505050565b600061097882611077565b9050919050565b60008073ffffffffffffffffffffffffffffffffffffffff168273ffffffffffffffffffffffffffffffffffffffff16036109f25760006040517f89c62b640000000000000000000000000000000000000000000000000000000081526004016109e9919061241e565b60405180910390fd5b600360008373ffffffffffffffffffffffffffffffffffffffff1673ffffffffffffffffffffffffffffffffffffffff168152602001908152602001600020549050919050565b610a416114dd565b610a4b6000611564565b565b60085481565b610a5b6114dd565b60008111610a9e576040517f08c379a0000000000000000000000000000000000000000000000000000000008152600401610a9590612b6d565b60405180910390fd5b60006008549050610aaf858261162a565b610ab98185611648565b82600960008381526020019081526020016000208190555081600a60008381526020019081526020016000208190555060086000815480929190610afc90612bbc565b91905055508473ffffffffffffffffffffffffffffffffffffffff167f77fb3e46048c7b33ab10547dff01e6c2cfabcaab1af3c0679ae74f8a445fff08828585604051610b4b93929190612c04565b60405180910390a25050505050565b6000600760009054906101000a900473ffffffffffffffffffffffffffffffffffffffff16905090565b606060018054610b9390612906565b80601f0160208091040260200160405190810160405280929190818152602001828054610bbf90612906565b8015610c0c5780601f10610be157610100808354040283529160200191610c0c565b820191906000526020600020905b815481529060010190602001808311610bef57829003601f168201915b5050505050905090565b610c28610c2161113c565b83836116a4565b5050565b610c3784848461066e565b610c4b610c4261113c565b85858585611813565b50505050565b600a6020528060005260406000206000915090505481565b60096020528060005260406000206000915090505481565b6060610c8c82611077565b506000600660008481526020019081526020016000208054610cad90612906565b80601f0160208091040260200160405190810160405280929190818152602001828054610cd990612906565b8015610d265780601f10610cfb57610100808354040283529160200191610d26565b820191906000526020600020905b815481529060010190602001808311610d0957829003601f168201915b505050505090506000610d376119c4565b90506000815103610d4c578192505050610d8f565b600082511115610d81578082604051602001610d69929190612c77565b60405160208183030381529060405292505050610d8f565b610d8a846119db565b925050505b919050565b3373ffffffffffffffffffffffffffffffffffffffff16610db48261096d565b73ffffffffffffffffffffffffffffffffffffffff1614610e0a576040517f08c379a0000000000000000000000000000000000000000000000000000000008152600401610e0190612ce7565b60405180910390fd5b610e1381611a44565b6009600082815260200190815260200160002060009055600a6000828152602001908152602001600020600090557f2a9d79b0f66d93896182d11a8e2f1eb2746b81299eaa3aa65c38f9864eb6a75381604051610e709190612534565b60405180910390a150565b6000600560008473ffffffffffffffffffffffffffffffffffffffff1673ffffffffffffffffffffffffffffffffffffffff16815260200190815260200160002060008373ffffffffffffffffffffffffffffffffffffffff1673ffffffffffffffffffffffffffffffffffffffff16815260200190815260200160002060009054906101000a900460ff16905092915050565b610f176114dd565b600073ffffffffffffffffffffffffffffffffffffffff168173ffffffffffffffffffffffffffffffffffffffff1603610f895760006040517f1e4fbdf7000000000000000000000000000000000000000000000000000000008152600401610f80919061241e565b60405180910390fd5b610f9281611564565b50565b60007f80ac58cd000000000000000000000000000000000000000000000000000000007bffffffffffffffffffffffffffffffffffffffffffffffffffffffff1916827bffffffffffffffffffffffffffffffffffffffffffffffffffffffff1916148061106057507f5b5e139f000000000000000000000000000000000000000000000000000000007bffffffffffffffffffffffffffffffffffffffffffffffffffffffff1916827bffffffffffffffffffffffffffffffffffffffffffffffffffffffff1916145b80611070575061106f82611aca565b5b9050919050565b60008061108383611b34565b9050600073ffffffffffffffffffffffffffffffffffffffff168173ffffffffffffffffffffffffffffffffffffffff16036110f657826040517f7e2732890000000000000000000000000000000000000000000000000000000081526004016110ed9190612534565b60405180910390fd5b80915050919050565b60006004600083815260200190815260200160002060009054906101000a900473ffffffffffffffffffffffffffffffffffffffff169050919050565b600033905090565b6111518383836001611b71565b505050565b60008061116284611b34565b9050600073ffffffffffffffffffffffffffffffffffffffff168373ffffffffffffffffffffffffffffffffffffffff16146111a4576111a3818486611d36565b5b600073ffffffffffffffffffffffffffffffffffffffff168173ffffffffffffffffffffffffffffffffffffffff1614611235576111e6600085600080611b71565b6001600360008373ffffffffffffffffffffffffffffffffffffffff1673ffffffffffffffffffffffffffffffffffffffff168152602001908152602001600020600082825403925050819055505b600073ffffffffffffffffffffffffffffffffffffffff168573ffffffffffffffffffffffffffffffffffffffff16146112b8576001600360008773ffffffffffffffffffffffffffffffffffffffff1673ffffffffffffffffffffffffffffffffffffffff168152602001908152602001600020600082825401925050819055505b846002600086815260200190815260200160002060006101000a81548173ffffffffffffffffffffffffffffffffffffffff021916908373ffffffffffffffffffffffffffffffffffffffff160217905550838573ffffffffffffffffffffffffffffffffffffffff168273ffffffffffffffffffffffffffffffffffffffff167fddf252ad1be2c89b69c2b068fc378daa952ba7f163c4a11628f55a4df523b3ef60405160405180910390a4809150509392505050565b600073ffffffffffffffffffffffffffffffffffffffff168273ffffffffffffffffffffffffffffffffffffffff16036113e25760006040517f64a0ae920000000000000000000000000000000000000000000000000000000081526004016113d9919061241e565b60405180910390fd5b60006113f083836000611156565b9050600073ffffffffffffffffffffffffffffffffffffffff168173ffffffffffffffffffffffffffffffffffffffff160361146357816040517f7e27328900000000000000000000000000000000000000000000000000000000815260040161145a9190612534565b60405180910390fd5b8373ffffffffffffffffffffffffffffffffffffffff168173ffffffffffffffffffffffffffffffffffffffff16146114d7578382826040517f64283d7b0000000000000000000000000000000000000000000000000000000081526004016114ce93929190612937565b60405180910390fd5b50505050565b6114e561113c565b73ffffffffffffffffffffffffffffffffffffffff16611503610b5a565b73ffffffffffffffffffffffffffffffffffffffff16146115625761152661113c565b6040517f118cdaa7000000000000000000000000000000000000000000000000000000008152600401611559919061241e565b60405180910390fd5b565b6000600760009054906101000a900473ffffffffffffffffffffffffffffffffffffffff16905081600760006101000a81548173ffffffffffffffffffffffffffffffffffffffff021916908373ffffffffffffffffffffffffffffffffffffffff1602179055508173ffffffffffffffffffffffffffffffffffffffff168173ffffffffffffffffffffffffffffffffffffffff167f8be0079c531659141344cd1fd0a4f28419497f9722a3daafe3b4186f6b6457e060405160405180910390a35050565b611644828260405180602001604052806000815250611dfa565b5050565b806006600084815260200190815260200160002090816116689190612eb3565b507ff8e1a15aba9398e019f0b49df1a4fde98ee17ae345cb5f6b5e2c27f5033e8ce7826040516116989190612534565b60405180910390a15050565b600073ffffffffffffffffffffffffffffffffffffffff168273ffffffffffffffffffffffffffffffffffffffff160361171557816040517f5b08ba1800000000000000000000000000000000000000000000000000000000815260040161170c919061241e565b60405180910390fd5b80600560008573ffffffffffffffffffffffffffffffffffffffff1673ffffffffffffffffffffffffffffffffffffffff16815260200190815260200160002060008473ffffffffffffffffffffffffffffffffffffffff1673ffffffffffffffffffffffffffffffffffffffff16815260200190815260200160002060006101000a81548160ff0219169083151502179055508173ffffffffffffffffffffffffffffffffffffffff168373ffffffffffffffffffffffffffffffffffffffff167f17307eab39ab6107e8899845ad3d59bd9653f200f220920489ca2b5937696c318360405161180691906122ad565b60405180910390a3505050565b60008373ffffffffffffffffffffffffffffffffffffffff163b11156119bd578273ffffffffffffffffffffffffffffffffffffffff1663150b7a02868685856040518563ffffffff1660e01b81526004016118729493929190612fda565b6020604051808303816000875af19250505080156118ae57506040513d601f19601f820116820180604052508101906118ab919061303b565b60015b611932573d80600081146118de576040519150601f19603f3d011682016040523d82523d6000602084013e6118e3565b606091505b50600081510361192a57836040517f64a0ae92000000000000000000000000000000000000000000000000000000008152600401611921919061241e565b60405180910390fd5b805181602001fd5b63150b7a0260e01b7bffffffffffffffffffffffffffffffffffffffffffffffffffffffff1916817bffffffffffffffffffffffffffffffffffffffffffffffffffffffff1916146119bb57836040517f64a0ae920000000000000000000000000000000000000000000000000000000081526004016119b2919061241e565b60405180910390fd5b505b5050505050565b606060405180602001604052806000815250905090565b60606119e682611077565b5060006119f16119c4565b90506000815111611a115760405180602001604052806000815250611a3c565b80611a1b84611e1e565b604051602001611a2c929190612c77565b6040516020818303038152906040525b915050919050565b6000611a536000836000611156565b9050600073ffffffffffffffffffffffffffffffffffffffff168173ffffffffffffffffffffffffffffffffffffffff1603611ac657816040517f7e273289000000000000000000000000000000000000000000000000000000008152600401611abd9190612534565b60405180910390fd5b5050565b60007f01ffc9a7000000000000000000000000000000000000000000000000000000007bffffffffffffffffffffffffffffffffffffffffffffffffffffffff1916827bffffffffffffffffffffffffffffffffffffffffffffffffffffffff1916149050919050565b60006002600083815260200190815260200160002060009054906101000a900473ffffffffffffffffffffffffffffffffffffffff169050919050565b8080611baa5750600073ffffffffffffffffffffffffffffffffffffffff168273ffffffffffffffffffffffffffffffffffffffff1614155b15611cde576000611bba84611077565b9050600073ffffffffffffffffffffffffffffffffffffffff168373ffffffffffffffffffffffffffffffffffffffff1614158015611c2557508273ffffffffffffffffffffffffffffffffffffffff168173ffffffffffffffffffffffffffffffffffffffff1614155b8015611c385750611c368184610e7b565b155b15611c7a57826040517fa9fbf51f000000000000000000000000000000000000000000000000000000008152600401611c71919061241e565b60405180910390fd5b8115611cdc57838573ffffffffffffffffffffffffffffffffffffffff168273ffffffffffffffffffffffffffffffffffffffff167f8c5be1e5ebec7d5bd14f71427d1e84f3dd0314c0f7b2291e5b200ac8c7c3b92560405160405180910390a45b505b836004600085815260200190815260200160002060006101000a81548173ffffffffffffffffffffffffffffffffffffffff021916908373ffffffffffffffffffffffffffffffffffffffff16021790555050505050565b611d41838383611eec565b611df557600073ffffffffffffffffffffffffffffffffffffffff168373ffffffffffffffffffffffffffffffffffffffff1603611db657806040517f7e273289000000000000000000000000000000000000000000000000000000008152600401611dad9190612534565b60405180910390fd5b81816040517f177e802f000000000000000000000000000000000000000000000000000000008152600401611dec929190613068565b60405180910390fd5b505050565b611e048383611fad565b611e19611e0f61113c565b6000858585611813565b505050565b606060006001611e2d846120a6565b01905060008167ffffffffffffffff811115611e4c57611e4b612559565b5b6040519080825280601f01601f191660200182016040528015611e7e5781602001600182028036833780820191505090505b509050600082602001820190505b600115611ee1578080600190039150507f3031323334353637383961626364656600000000000000000000000000000000600a86061a8153600a8581611ed557611ed4613091565b5b04945060008503611e8c575b819350505050919050565b60008073ffffffffffffffffffffffffffffffffffffffff168373ffffffffffffffffffffffffffffffffffffffff1614158015611fa457508273ffffffffffffffffffffffffffffffffffffffff168473ffffffffffffffffffffffffffffffffffffffff161480611f655750611f648484610e7b565b5b80611fa357508273ffffffffffffffffffffffffffffffffffffffff16611f8b836110ff565b73ffffffffffffffffffffffffffffffffffffffff16145b5b90509392505050565b600073ffffffffffffffffffffffffffffffffffffffff168273ffffffffffffffffffffffffffffffffffffffff160361201f5760006040517f64a0ae92000000000000000000000000000000000000000000000000000000008152600401612016919061241e565b60405180910390fd5b600061202d83836000611156565b9050600073ffffffffffffffffffffffffffffffffffffffff168173ffffffffffffffffffffffffffffffffffffffff16146120a15760006040517f73c6ac6e000000000000000000000000000000000000000000000000000000008152600401612098919061241e565b60405180910390fd5b505050565b600080600090507a184f03e93ff9f4daa797ed6e38ed64bf6a1f0100000000000000008310612104577a184f03e93ff9f4daa797ed6e38ed64bf6a1f01000000000000000083816120fa576120f9613091565b5b0492506040810190505b6d04ee2d6d415b85acef81000000008310612141576d04ee2d6d415b85acef8100000000838161213757612136613091565b5b0492506020810190505b662386f26fc10000831061217057662386f26fc10000838161216657612165613091565b5b0492506010810190505b6305f5e1008310612199576305f5e100838161218f5761218e613091565b5b0492506008810190505b61271083106121be5761271083816121b4576121b3613091565b5b0492506004810190505b606483106121e157606483816121d7576121d6613091565b5b0492506002810190505b600a83106121f0576001810190505b80915050919050565b6000604051905090565b600080fd5b600080fd5b60007fffffffff0000000000000000000000000000000000000000000000000000000082169050919050565b6122428161220d565b811461224d57600080fd5b50565b60008135905061225f81612239565b92915050565b60006020828403121561227b5761227a612203565b5b600061228984828501612250565b91505092915050565b60008115159050919050565b6122a781612292565b82525050565b60006020820190506122c2600083018461229e565b92915050565b600081519050919050565b600082825260208201905092915050565b60005b838110156123025780820151818401526020810190506122e7565b60008484015250505050565b6000601f19601f8301169050919050565b600061232a826122c8565b61233481856122d3565b93506123448185602086016122e4565b61234d8161230e565b840191505092915050565b60006020820190508181036000830152612372818461231f565b905092915050565b6000819050919050565b61238d8161237a565b811461239857600080fd5b50565b6000813590506123aa81612384565b92915050565b6000602082840312156123c6576123c5612203565b5b60006123d48482850161239b565b91505092915050565b600073ffffffffffffffffffffffffffffffffffffffff82169050919050565b6000612408826123dd565b9050919050565b612418816123fd565b82525050565b6000602082019050612433600083018461240f565b92915050565b612442816123fd565b811461244d57600080fd5b50565b60008135905061245f81612439565b92915050565b6000806040838503121561247c5761247b612203565b5b600061248a85828601612450565b925050602061249b8582860161239b565b9150509250929050565b6000806000606084860312156124be576124bd612203565b5b60006124cc86828701612450565b93505060206124dd86828701612450565b92505060406124ee8682870161239b565b9150509250925092565b60006020828403121561250e5761250d612203565b5b600061251c84828501612450565b91505092915050565b61252e8161237a565b82525050565b60006020820190506125496000830184612525565b92915050565b600080fd5b600080fd5b7f4e487b7100000000000000000000000000000000000000000000000000000000600052604160045260246000fd5b6125918261230e565b810181811067ffffffffffffffff821117156125b0576125af612559565b5b80604052505050565b60006125c36121f9565b90506125cf8282612588565b919050565b600067ffffffffffffffff8211156125ef576125ee612559565b5b6125f88261230e565b9050602081019050919050565b82818337600083830152505050565b6000612627612622846125d4565b6125b9565b90508281526020810184848401111561264357612642612554565b5b61264e848285612605565b509392505050565b600082601f83011261266b5761266a61254f565b5b813561267b848260208601612614565b91505092915050565b6000806000806080858703121561269e5761269d612203565b5b60006126ac87828801612450565b945050602085013567ffffffffffffffff8111156126cd576126cc612208565b5b6126d987828801612656565b93505060406126ea8782880161239b565b92505060606126fb8782880161239b565b91505092959194509250565b61271081612292565b811461271b57600080fd5b50565b60008135905061272d81612707565b92915050565b6000806040838503121561274a57612749612203565b5b600061275885828601612450565b92505060206127698582860161271e565b9150509250929050565b600067ffffffffffffffff82111561278e5761278d612559565b5b6127978261230e565b9050602081019050919050565b60006127b76127b284612773565b6125b9565b9050828152602081018484840111156127d3576127d2612554565b5b6127de848285612605565b509392505050565b600082601f8301126127fb576127fa61254f565b5b813561280b8482602086016127a4565b91505092915050565b6000806000806080858703121561282e5761282d612203565b5b600061283c87828801612450565b945050602061284d87828801612450565b935050604061285e8782880161239b565b925050606085013567ffffffffffffffff81111561287f5761287e612208565b5b61288b878288016127e6565b91505092959194509250565b600080604083850312156128ae576128ad612203565b5b60006128bc85828601612450565b92505060206128cd85828601612450565b9150509250929050565b7f4e487b7100000000000000000000000000000000000000000000000000000000600052602260045260246000fd5b6000600282049050600182168061291e57607f821691505b602082108103612931576129306128d7565b5b50919050565b600060608201905061294c600083018661240f565b6129596020830185612525565b612966604083018461240f565b949350505050565b7f496e73756666696369656e74207061796d656e74000000000000000000000000600082015250565b60006129a46014836122d3565b91506129af8261296e565b602082019050919050565b600060208201905081810360008301526129d381612997565b9050919050565b7f43616e6e6f742062757920796f7572206f776e204e4654000000000000000000600082015250565b6000612a106017836122d3565b9150612a1b826129da565b602082019050919050565b60006020820190508181036000830152612a3f81612a03565b9050919050565b600081905092915050565b50565b6000612a61600083612a46565b9150612a6c82612a51565b600082019050919050565b6000612a8282612a54565b9150819050919050565b7f5472616e73666572206661696c65640000000000000000000000000000000000600082015250565b6000612ac2600f836122d3565b9150612acd82612a8c565b602082019050919050565b60006020820190508181036000830152612af181612ab5565b9050919050565b6000604082019050612b0d6000830185612525565b612b1a6020830184612525565b9392505050565b7f5072696365206d7573742062652067726561746572207468616e207a65726f00600082015250565b6000612b57601f836122d3565b9150612b6282612b21565b602082019050919050565b60006020820190508181036000830152612b8681612b4a565b9050919050565b7f4e487b7100000000000000000000000000000000000000000000000000000000600052601160045260246000fd5b6000612bc78261237a565b91507fffffffffffffffffffffffffffffffffffffffffffffffffffffffffffffffff8203612bf957612bf8612b8d565b5b600182019050919050565b6000606082019050612c196000830186612525565b612c266020830185612525565b612c336040830184612525565b949350505050565b600081905092915050565b6000612c51826122c8565b612c5b8185612c3b565b9350612c6b8185602086016122e4565b80840191505092915050565b6000612c838285612c46565b9150612c8f8284612c46565b91508190509392505050565b7f4e6f7420746865206f776e657200000000000000000000000000000000000000600082015250565b6000612cd1600d836122d3565b9150612cdc82612c9b565b602082019050919050565b60006020820190508181036000830152612d0081612cc4565b9050919050565b60008190508160005260206000209050919050565b60006020601f8301049050919050565b600082821b905092915050565b600060088302612d697fffffffffffffffffffffffffffffffffffffffffffffffffffffffffffffffff82612d2c565b612d738683612d2c565b95508019841693508086168417925050509392505050565b6000819050919050565b6000612db0612dab612da68461237a565b612d8b565b61237a565b9050919050565b6000819050919050565b612dca83612d95565b612dde612dd682612db7565b848454612d39565b825550505050565b600090565b612df3612de6565b612dfe818484612dc1565b505050565b5b81811015612e2257612e17600082612deb565b600181019050612e04565b5050565b601f821115612e6757612e3881612d07565b612e4184612d1c565b81016020851015612e50578190505b612e64612e5c85612d1c565b830182612e03565b50505b505050565b600082821c905092915050565b6000612e8a60001984600802612e6c565b1980831691505092915050565b6000612ea38383612e79565b9150826002028217905092915050565b612ebc826122c8565b67ffffffffffffffff811115612ed557612ed4612559565b5b612edf8254612906565b612eea828285612e26565b600060209050601f831160018114612f1d5760008415612f0b578287015190505b612f158582612e97565b865550612f7d565b601f198416612f2b86612d07565b60005b82811015612f5357848901518255600182019150602085019450602081019050612f2e565b86831015612f705784890151612f6c601f891682612e79565b8355505b6001600288020188555050505b505050505050565b600081519050919050565b600082825260208201905092915050565b6000612fac82612f85565b612fb68185612f90565b9350612fc68185602086016122e4565b612fcf8161230e565b840191505092915050565b6000608082019050612fef600083018761240f565b612ffc602083018661240f565b6130096040830185612525565b818103606083015261301b8184612fa1565b905095945050505050565b60008151905061303581612239565b92915050565b60006020828403121561305157613050612203565b5b600061305f84828501613026565b91505092915050565b600060408201905061307d600083018561240f565b61308a6020830184612525565b9392505050565b7f4e487b7100000000000000000000000000000000000000000000000000000000600052601260045260246000fdfea2646970667358221220120c26cbf3739cbfa2258527fdc0eb59b9969e105c6739470d3eda7545eb08fd64736f6c634300081c0033",
  "linkReferences": {},
  "deployedLinkReferences": {}
}